{
  "contractName": "Election",
  "abi": [
    {
      "inputs": [
        {
          "internalType": "address[5]",
          "name": "_admins",
          "type": "address[5]"
        }
      ],
      "payable": false,
      "stateMutability": "nonpayable",
      "type": "constructor"
    },
    {
      "anonymous": false,
      "inputs": [
        {
          "indexed": true,
          "internalType": "uint256",
          "name": "_candidateId",
          "type": "uint256"
        }
      ],
      "name": "votedEvent",
      "type": "event"
    },
    {
      "constant": true,
      "inputs": [
        {
          "internalType": "uint256",
          "name": "",
          "type": "uint256"
        }
      ],
      "name": "Admin",
      "outputs": [
        {
          "internalType": "address",
          "name": "",
          "type": "address"
        }
      ],
      "payable": false,
      "stateMutability": "view",
      "type": "function"
    },
    {
      "constant": true,
      "inputs": [
        {
          "internalType": "uint256",
          "name": "",
          "type": "uint256"
        }
      ],
      "name": "candidates",
      "outputs": [
        {
          "internalType": "uint256",
          "name": "id",
          "type": "uint256"
        },
        {
          "internalType": "string",
          "name": "name",
          "type": "string"
        },
        {
          "internalType": "uint256",
          "name": "voteCount",
          "type": "uint256"
        }
      ],
      "payable": false,
      "stateMutability": "view",
      "type": "function"
    },
    {
      "constant": true,
      "inputs": [],
      "name": "candidatesCount",
      "outputs": [
        {
          "internalType": "uint256",
          "name": "",
          "type": "uint256"
        }
      ],
      "payable": false,
      "stateMutability": "view",
      "type": "function"
    },
    {
      "constant": true,
      "inputs": [
        {
          "internalType": "address",
          "name": "",
          "type": "address"
        }
      ],
      "name": "voters",
      "outputs": [
        {
          "internalType": "bool",
          "name": "",
          "type": "bool"
        }
      ],
      "payable": false,
      "stateMutability": "view",
      "type": "function"
    },
    {
      "constant": false,
      "inputs": [
        {
          "internalType": "string",
          "name": "_name",
          "type": "string"
        }
      ],
      "name": "addCandidate",
      "outputs": [],
      "payable": false,
      "stateMutability": "nonpayable",
      "type": "function"
    },
    {
      "constant": false,
      "inputs": [
        {
          "internalType": "uint256",
          "name": "_candidateId",
          "type": "uint256"
        }
      ],
      "name": "vote",
      "outputs": [],
      "payable": false,
      "stateMutability": "nonpayable",
      "type": "function"
    },
    {
      "constant": true,
      "inputs": [],
      "name": "isAdmin",
      "outputs": [
        {
          "internalType": "bool",
          "name": "",
          "type": "bool"
        }
      ],
      "payable": false,
      "stateMutability": "view",
      "type": "function"
    }
  ],
  "bytecode": "0x60806040523480156200001157600080fd5b5060405162000aec38038062000aec833981810160405260a08110156200003757600080fd5b8101908091905050806000906005620000529291906200020e565b50620000996040518060400160405280600b81526020017f43616e6469646174652031000000000000000000000000000000000000000000815250620000e660201b60201c565b620000df6040518060400160405280600b81526020017f43616e6469646174652032000000000000000000000000000000000000000000815250620000e660201b60201c565b5062000385565b620000f66200017e60201b60201c565b6200010057600080fd5b6007600081548092919060010191905055506040518060600160405280600754815260200182815260200160008152506006600060075481526020019081526020016000206000820151816000015560208201518160010190805190602001906200016d92919062000290565b506040820151816002015590505050565b6000805b600581101562000209573373ffffffffffffffffffffffffffffffffffffffff1660008260058110620001b157fe5b0160009054906101000a900473ffffffffffffffffffffffffffffffffffffffff1673ffffffffffffffffffffffffffffffffffffffff161415620001fb5760019150506200020b565b808060010191505062000182565b505b90565b82600581019282156200027d579160200282015b828111156200027c5782518260006101000a81548173ffffffffffffffffffffffffffffffffffffffff021916908373ffffffffffffffffffffffffffffffffffffffff1602179055509160200191906001019062000222565b5b5090506200028c919062000317565b5090565b828054600181600116156101000203166002900490600052602060002090601f016020900481019282601f10620002d357805160ff191683800117855562000304565b8280016001018555821562000304579182015b8281111562000303578251825591602001919060010190620002e6565b5b5090506200031391906200035d565b5090565b6200035a91905b808211156200035657600081816101000a81549073ffffffffffffffffffffffffffffffffffffffff0219169055506001016200031e565b5090565b90565b6200038291905b808211156200037e57600081600090555060010162000364565b5090565b90565b61075780620003956000396000f3fe608060405234801561001057600080fd5b506004361061007d5760003560e01c8063462e91ec1161005b578063462e91ec146101835780637c98fa131461023e578063a3ec138d146102ac578063b6db75a0146103085761007d565b80630121b93f146100825780632d35a8a2146100b05780633477ee2e146100ce575b600080fd5b6100ae6004803603602081101561009857600080fd5b810190808035906020019092919050505061032a565b005b6100b861044a565b6040518082815260200191505060405180910390f35b6100fa600480360360208110156100e457600080fd5b8101908080359060200190929190505050610450565b6040518084815260200180602001838152602001828103825284818151815260200191508051906020019080838360005b8381101561014657808201518184015260208101905061012b565b50505050905090810190601f1680156101735780820380516001836020036101000a031916815260200191505b5094505050505060405180910390f35b61023c6004803603602081101561019957600080fd5b81019080803590602001906401000000008111156101b657600080fd5b8201836020820111156101c857600080fd5b803590602001918460018302840111640100000000831117156101ea57600080fd5b91908080601f016020809104026020016040519081016040528093929190818152602001838380828437600081840152601f19601f820116905080830192505050505050509192919290505050610512565b005b61026a6004803603602081101561025457600080fd5b810190808035906020019092919050505061059f565b604051808273ffffffffffffffffffffffffffffffffffffffff1673ffffffffffffffffffffffffffffffffffffffff16815260200191505060405180910390f35b6102ee600480360360208110156102c257600080fd5b81019080803573ffffffffffffffffffffffffffffffffffffffff1690602001909291905050506105d2565b604051808215151515815260200191505060405180910390f35b6103106105f2565b604051808215151515815260200191505060405180910390f35b600560003373ffffffffffffffffffffffffffffffffffffffff1673ffffffffffffffffffffffffffffffffffffffff16815260200190815260200160002060009054906101000a900460ff161561038157600080fd5b60008111801561039357506007548111155b61039c57600080fd5b6001600560003373ffffffffffffffffffffffffffffffffffffffff1673ffffffffffffffffffffffffffffffffffffffff16815260200190815260200160002060006101000a81548160ff0219169083151502179055506006600082815260200190815260200160002060020160008154809291906001019190505550807ffff3c900d938d21d0990d786e819f29b8d05c1ef587b462b939609625b684b1660405160405180910390a250565b60075481565b6006602052806000526040600020600091509050806000015490806001018054600181600116156101000203166002900480601f0160208091040260200160405190810160405280929190818152602001828054600181600116156101000203166002900480156105025780601f106104d757610100808354040283529160200191610502565b820191906000526020600020905b8154815290600101906020018083116104e557829003601f168201915b5050505050908060020154905083565b61051a6105f2565b61052357600080fd5b60076000815480929190600101919050555060405180606001604052806007548152602001828152602001600081525060066000600754815260200190815260200160002060008201518160000155602082015181600101908051906020019061058e92919061067d565b506040820151816002015590505050565b600081600581106105ac57fe5b016000915054906101000a900473ffffffffffffffffffffffffffffffffffffffff1681565b60056020528060005260406000206000915054906101000a900460ff1681565b6000805b6005811015610678573373ffffffffffffffffffffffffffffffffffffffff166000826005811061062357fe5b0160009054906101000a900473ffffffffffffffffffffffffffffffffffffffff1673ffffffffffffffffffffffffffffffffffffffff16141561066b57600191505061067a565b80806001019150506105f6565b505b90565b828054600181600116156101000203166002900490600052602060002090601f016020900481019282601f106106be57805160ff19168380011785556106ec565b828001600101855582156106ec579182015b828111156106eb5782518255916020019190600101906106d0565b5b5090506106f991906106fd565b5090565b61071f91905b8082111561071b576000816000905550600101610703565b5090565b9056fea265627a7a72315820883a996599de50ea916fedcd5e3c11447df6ae2c8c59ebc42ecca9d9272055be64736f6c63430005100032",
  "source": "pragma solidity ^0.5.0;\n\ncontract Election {\n    address [5] public Admin;\n    // Model a Candidate\n    struct Candidate {\n        uint id;\n        string name;\n        uint voteCount;\n    }\n    //Store accounts that have voted\n    mapping(address => bool) public voters;\n    // Read/write candidates\n    mapping(uint => Candidate) public candidates;\n    // Store Candidates Count\n    uint public candidatesCount;\n    modifier onlyAdmin(){\n        require(isAdmin());\n        _;\n      }\n    \n    constructor(address [5] memory _admins) public {\n\t    Admin=_admins;\n        addCandidate(\"Candidate 1\");\n        addCandidate(\"Candidate 2\");\n    }\n    event votedEvent (\n\tuint indexed _candidateId );\n    function addCandidate (string memory _name) public onlyAdmin {\n        candidatesCount ++;\n        candidates[candidatesCount] = Candidate(candidatesCount, _name, 0);\n    }\n    function vote (uint _candidateId) public {\n\t// require that they haven't voted before\n    require(!voters[msg.sender]);\n\t// require a valid candidate\n\trequire(_candidateId > 0 && _candidateId <= candidatesCount);\n\t// record that voter has voted\n\tvoters[msg.sender] = true;\n\t// update candidate vote Count\n\tcandidates[_candidateId].voteCount ++;\n\temit votedEvent(_candidateId);\n\t}\n    function isAdmin () public view returns (bool){\n        for (uint i; i< Admin.length;i++){\n            if (Admin[i]==msg.sender) return true;}\n        }\n}\n",
  "sourcePath": "/home/dapp12/Documents/Ethereum_voting_dapp/contracts/Election.sol",
  "compiler": {
    "name": "solc",
    "version": "0.5.16+commit.9c3226ce.Emscripten.clang"
  },
  "schemaVersion": "3.4.11",
  "updatedAt": "2022-12-11T11:35:28.228Z",
  "networkType": "ethereum",
  "devdoc": {
    "methods": {}
  },
  "userdoc": {
    "methods": {}
  }
}